{
  "abi": [
    {
      "type": "function",
      "name": "decrement",
      "inputs": [],
      "outputs": [],
      "stateMutability": "nonpayable"
    },
    {
      "type": "function",
      "name": "increment",
      "inputs": [],
      "outputs": [],
      "stateMutability": "nonpayable"
    },
    {
      "type": "function",
      "name": "number",
      "inputs": [],
      "outputs": [
        {
          "name": "",
          "type": "uint256",
          "internalType": "uint256"
        }
      ],
      "stateMutability": "view"
    },
    {
      "type": "function",
      "name": "setNumber",
      "inputs": [
        {
          "name": "newNumber",
          "type": "uint256",
          "internalType": "uint256"
        }
      ],
      "outputs": [],
      "stateMutability": "nonpayable"
    },
    {
      "type": "event",
      "name": "Change",
      "inputs": [
        {
          "name": "_value",
          "type": "uint256",
          "indexed": false,
          "internalType": "uint256"
        }
      ],
      "anonymous": false
    }
  ],
  "bytecode": {
    "object": "0x60808060405234601557610170908161001b8239f35b600080fdfe608080604052600436101561001357600080fd5b60003560e01c9081632baeceb7146100ee575080633fb5c1cb146100d55780638381f58a146100b75763d09de08a1461004b57600080fd5b346100b25760003660031901126100b257600054600019811461009c57602060017ff956bf4ad7309c08d315aa8ed40ff728f7e6f2652f6bfbdadf06e5538e1c1768920180600055604051908152a1005b634e487b7160e01b600052601160045260246000fd5b600080fd5b346100b25760003660031901126100b2576020600054604051908152f35b346100b25760203660031901126100b257600435600055005b346100b25760003660031901126100b257600054801561009c577ff956bf4ad7309c08d315aa8ed40ff728f7e6f2652f6bfbdadf06e5538e1c17689160209160001901806000558152a100fea26469706673582212202dac06baaabe46d9a624f13c9fe1d0754122a18b88bef689bacf8f8589399a4364736f6c634300081a0033",
    "linkReferences": {}
  },
  "methodIdentifiers": {
    "decrement()": "2baeceb7",
    "increment()": "d09de08a",
    "number()": "8381f58a",
    "setNumber(uint256)": "3fb5c1cb"
  },
  "id": 0,
  "deployments": {
    "1337": "0xe64d3fe8daC38E035206f16e28fBF62cd92C076F"
  }
}