{
  "abi": [
    {
      "type": "function",
      "name": "decrement",
      "inputs": [],
      "outputs": [],
      "stateMutability": "nonpayable"
    },
    {
      "type": "function",
      "name": "increment",
      "inputs": [],
      "outputs": [],
      "stateMutability": "nonpayable"
    },
    {
      "type": "function",
      "name": "number",
      "inputs": [],
      "outputs": [
        {
          "name": "",
          "type": "uint256",
          "internalType": "uint256"
        }
      ],
      "stateMutability": "view"
    },
    {
      "type": "function",
      "name": "setNumber",
      "inputs": [
        {
          "name": "newNumber",
          "type": "uint256",
          "internalType": "uint256"
        }
      ],
      "outputs": [],
      "stateMutability": "nonpayable"
    }
  ],
  "bytecode": {
    "object": "0x60808060405234601557610109908161001b8239f35b600080fdfe60806040526004361015601157600080fd5b60003560e01c80632baeceb71460b35780633fb5c1cb14609c5780638381f58a1460805763d09de08a14604357600080fd5b34607b576000366003190112607b576000546000198114606557600101600055005b634e487b7160e01b600052601160045260246000fd5b600080fd5b34607b576000366003190112607b576020600054604051908152f35b34607b576020366003190112607b57600435600055005b34607b576000366003190112607b5760005480156065576000190160005500fea264697066735822122088d08d2181a605e9f1bc205430dd6eb7146779ab5e387a76f9d256d1a2b6bfa264736f6c634300081a0033",
    "linkReferences": {}
  },
  "methodIdentifiers": {
    "decrement()": "2baeceb7",
    "increment()": "d09de08a",
    "number()": "8381f58a",
    "setNumber(uint256)": "3fb5c1cb"
  },
  "id": 0,
  "deployments": {
    "1337": "0x53BAe22e6fECAf317a6E57ea6B9CB2F94ad14708"
  }
}